:020000040800F2
:10000000800600204D020008550200085702000833
:10001000590200085B0200085D02000800000000B1
:100020000000000000000000000000005F02000867
:10003000610200080000000063020008150A0008C1
:1000400067020008670200086702000867020008EC
:1000500067020008670200086702000867020008DC
:1000600067020008670200086702000867020008CC
:1000700067020008670200086702000867020008BC
:1000800067020008670200086702000867020008AC
:10009000670200086702000867020008670200089C
:1000A000670200086702000867020008670200088C
:1000B000670200086702000867020008670200087C
:1000C000670200086702000867020008670200086C
:1000D000670200086702000867020008670200085C
:1000E000670200086702000867020008670200084C
:1000F000670200086702000867020008670200083C
:10010000670200086702000867020008670200082B
:10011000670200086702000867020008670200081B
:10012000670200086702000867020008670200080B
:1001300067020008670200086702000867020008FB
:1001400067020008670200086702000867020008EB
:1001500067020008670200086702000867020008DB
:1001600067020008670200086702000867020008CB
:1001700067020008670200086702000867020008BB
:1001800067020008670200086702000867020008AB
:10019000670200086702000867020008670200089B
:1001A00067020008670200086702000800F002F812
:1001B00000F03CF80AA090E8000C82448344AAF1C5
:1001C0000107DA4501D100F031F8AFF2090EBAE8C3
:1001D0000F0013F0010F18BFFB1A43F0010318477B
:1001E000780A0000980A0000103A24BF78C878C145
:1001F000FAD8520724BF30C830C144BF04680C602D
:10020000704700000023002400250026103A28BF74
:1002100078C1FBD8520728BF30C148BF0B60704778
:100220001FB500F042FC1FBD10B510BD00F031F845
:100230001146FFF7F5FF00F02DFC00F04FF803B476
:10024000FFF7F2FF03BC00F057F8000009488047B1
:1002500009480047FEE7FEE7FEE7FEE7FEE7FEE7A8
:10026000FEE7FEE7FEE7FEE704480549054A064BC0
:10027000704700002D0A0008AD0100088000002032
:100280008006002080020020800200207047704716
:100290007047754600F02CF8AE4605006946534697
:1002A00020F00700854618B020B5FFF7DDFFBDE858
:1002B00020404FF000064FF000074FF000084FF0CD
:1002C000000B21F00701AC46ACE8C009ACE8C0095E
:1002D000ACE8C009ACE8C0098D46704710B50446CB
:1002E000AFF300802046BDE81040FFF7A8BF000034
:1002F000004870471C00002001491820ABBEFEE7F3
:100300002600020070470000F0B5034600247CBBC5
:100310001B4800684FF47A72B0FBF2F00322B0FB86
:10032000F2F1481EB0F1807F01D301201BE0481E8E
:100330004FF0E022506150170F22002807DA15070E
:100340002F0E104D00F00F06361FAF5503E01507B6
:100350002E0E0D4D2E5400BF00204FF0E022906174
:1003600007201061002008B100BFFEE7601CC4B286
:100370000648036000BF054800680028FBD1F0BDB7
:100380000000002018ED00E000E400E0180000206C
:1003900031B582B000209F237F220146009000F0FB
:1003A00067FA00240BE0002505E0012102A800F017
:1003B00055FA681CC5B2A02DF7DB601CC4B2802CB6
:1003C000F1DB3EBDF0B50A4600210023002400BF4A
:1003D0003DE0012505FA01F3156805EA03049C4296
:1003E00034D105684F000326BE40B543056015793A
:1003F0004E00B5400668354305601579012D02D0E1
:100400001579022D16D185684F000326BE40B543ED
:10041000856055794E00B5408668354385604568EE
:1004200001268E40B5434560456896798E40B6B248
:1004300035434560C5684F000326BE40B543C560DF
:10044000D5794E00B540C6683543C560491C1029B2
:10045000BFD3F0BDF0B5002300244D07ED0E02FA26
:1004600005F3CE1000F1200555F826504E07F70E83
:100470000F26BE40B543CF1000F1200646F82750A6
:10048000CE1000F1200555F8265045EA0304CE10A1
:1004900000F1200545F82640F0BD418370470183F7
:1004A00070474FF6FF710160002101714171817148
:1004B000C17170470AB1018300E0418370470000B9
:1004C0002DE9F04105460E4617460DB9002400E01F
:1004D0000124224604210948FFF7ECFF01210748C7
:1004E000FFF7DBFF3A463146002000F0A9F8012172
:1004F0000248FFF7D4FFBDE8F08100000008024089
:100500002DE9F04105460E4617460DB9002400E0DE
:100510000124224604210948FFF7CCFF01210748A6
:10052000FFF7BBFF3A463146002000F0B9F8012141
:100530000248FFF7B4FFBDE8F08100000008024068
:1005400029B1064A12680243044B1A6004E0034AC8
:1005500012688243014B1A60704700003038024035
:1005600029B1064A12680243044B1A6004E0034AA8
:1005700012688243014B1A60704700004438024001
:1005800000B587B001210846FFF7DAFF0121080313
:10059000FFF7E6FF052204212748FFF75BFF05224E
:1005A00011462548FFF756FF052206212248FFF78E
:1005B00051FF052207212048FFF74CFF05A8FFF750
:1005C00070FF1020059001208DF8180005A91A4829
:1005D000FFF7F8FE05A8FFF764FFE0200590022072
:1005E0008DF8180000208DF81A0002208DF81900EF
:1005F00005A91148FFF7E6FE0020ADF80000ADF8B0
:100600000E004FF48270ADF802000020ADF8040037
:10061000ADF80600ADF808004FF40070ADF80A0020
:100620002820ADF80C000720ADF8100069460348FB
:1006300000F07DF807B000BD00000240003001402E
:100640002DE9F04104460D4617460021134800F0FD
:1006500057F800261CE02DB115F8011B0F4800F0DB
:1006600064F803E0FF210D4800F05FF800BF0121AE
:100670000A4800F04EF80028F9D02CB1074800F0E5
:1006800051F804F8010B02E0044800F04BF8761C26
:10069000BE42E0DB3046BDE8F081000000300140A2
:1006A0002DE9F04104460D4617464FF4006113480A
:1006B00000F026F800261CE02DB135F8021B0F488B
:1006C00000F033F803E0FF210C4800F02EF800BFE3
:1006D00001210A4800F01DF80028F9D02CB1074884
:1006E00000F020F824F8020B02E0044800F01AF8A9
:1006F000761CBE42E0DB3046BDE8F08100300140B0
:1007000002884FF2FF731A40028002880A43028077
:1007100070470246002013890B400BB1012000E016
:10072000002070470146888970478181704710B565
:100730000022028802F441520B884C8823438C88A3
:100740002343CC8823430C8923434C8923438C893E
:100750002343CC8923431A430280838B4FF2FF74D7
:10076000234083830B8A038210BD000010B504462A
:100770002CB1002202210548FFF79CFE04E0012273
:1007800002210248FFF796FE10BD00000000024063
:100790001CB56846FFF785FE0720009001208DF804
:1007A000040000208DF805008DF8060001208DF86A
:1007B000070069462648FFF705FE6846FFF771FE09
:1007C0000220009001208DF8040000208DF8050023
:1007D0008DF8060001208DF8070069461D48FFF7D7
:1007E000F1FDFFF7CDFE012211461948FFF762FE29
:1007F000012202211648FFF75DFE0A20FFF784FD63
:10080000002202211248FFF755FE0A20FFF77CFD67
:10081000012202210E48FFF74DFE0A20FFF774FD6A
:100820000D4C11E0012221460020FFF749FEA0787F
:1008300020B1A278E11C0120FFF742FE607810B1E0
:100840006078FFF761FD133420780028EAD11CBDE1
:100850000008024000000240B40A000870B50446D7
:100860000D462A4621460120FFF74AFE70BD0000D2
:100870001FB59DF81800082141EA4010C0B206904B
:100880009DF818001649097888420BD0362000F0F0
:1008900029F8012206A91046FFF712FE9DF818005C
:1008A0000F4908702A2000F01DF801226946104601
:1008B000FFF726FE012202A91046FFF721FE2B209A
:1008C00000F010F8012201A91046FFF719FE0122DD
:1008D00003A91046FFF714FE2C2000F003F81FBDFB
:1008E0001400002001B5012269460020FFF7E8FD51
:1008F00008BD00000CB50020019000904148006840
:1009000040F480303F49086000BF3E48006800F472
:10091000003000900198401C0190009818B901988F
:10092000B0F5A04FF1D13748006800F4003010B1A5
:100930000120009001E0002000900098012860D183
:1009400030484030006840F080502E494031086007
:100950002D48006840F440402B4908602948083081
:1009600000682849083108600846006840F40040E3
:1009700008600846006840F4A05008602348091F3A
:100980000860081F006840F08070091F086000BF01
:100990001C48006800F000700028F9D01A48006870
:1009A00040F480301849086000BF1748406800F4E0
:1009B00080300028F9D01448006840F40030124913
:1009C000086000BF1048406800F400300028F9D0EB
:1009D00040F205700E4908600A480830006820F0AF
:1009E00003000849083108600846006840F002002A
:1009F000086000BF03480830006800F00C000828B9
:100A0000F8D10CBD0038024000700040195A400770
:100A1000003C02400448006820B103480068401EC2
:100A200001490860704700001800002010B5154803
:100A3000006840F47000134908601348006840F0F3
:100A400001001149086000200F49083108600E4874
:100A500000680E4908400C4908600D48091D0860EF
:100A6000081F006820F48020091F08600020064944
:100A70000C310860FFF73EFF4FF0006001498039FC
:100A8000086010BD88ED00E000380240FFFFF6FE70
:100A900010300024FFF77CFE0120FFF767FE4FF4C3
:100AA0007840FFF775FC00BFFEE74FF04070E1EEC5
:100AB000100A7047019600000000000000000000CE
:100AC000000000000000001196000000000000007F
:100AD00000000000000000000000B10003012C2D08
:100AE00000000000000000000000000000B2000351
:100AF000012C2D000000000000000000000000009C
:100B0000B30006012C2D012C2D0000000000000078
:100B1000000000B400010700000000000000000019
:100B2000000000000000C00003A2028400000000DA
:100B3000000000000000000000C10001C50000002E
:100B4000000000000000000000000000C200020AD7
:100B5000000000000000000000000000000000C3D2
:100B600000028A2A000000000000000000000000CF
:100B70000000C400028AEE00000000000000000037
:100B80000000000000C500010E0000000000000091
:100B90000000000000000000200000000000000035
:100BA0000000000000000000000000360001C80046
:100BB00000000000000000000000000000003A00FB
:100BC000010500000000000000000000000000001F
:100BD000002A00040000007F000000000000000068
:100BE000000000002B00040000009F000000000037
:100BF00000000000000000E00010021C0712373265
:100C0000292D29252B3900010310E10010031D07B0
:100C1000062E2C292D2E2E373F00000210296400AD
:100C200000000000000000000000000000000000C4
:100C3000130A000000000000000000000000000097
:100C400000000000000000000000000000000000A4
:100C50000000000000000000780C000800000020E8
:100C60001C000000E8010008940C00081C00002093
:100C700064060000040200080095BA0A00000000A3
:100C8000000000000102030406070809C800000074
:040C90000000000060
:04000005080001AD41
:00000001FF
