:020000040800F2
:10000000780600204D02000855020008570200083B
:10001000590200085B0200085D02000800000000B1
:100020000000000000000000000000005F02000867
:100030006102000800000000630200086502000879
:1000400067020008670200086702000867020008EC
:1000500067020008670200086702000867020008DC
:1000600067020008670200086702000867020008CC
:1000700067020008670200086702000867020008BC
:1000800067020008670200086702000867020008AC
:10009000670200086702000867020008670200089C
:1000A000670200086702000867020008670200088C
:1000B000670200086702000867020008670200087C
:1000C000670200086702000867020008670200086C
:1000D000670200086702000867020008670200085C
:1000E000670200086702000867020008670200084C
:1000F000670200086702000867020008670200083C
:10010000670200086702000867020008670200082B
:10011000670200086702000867020008670200081B
:10012000670200086702000867020008670200080B
:1001300067020008670200086702000867020008FB
:1001400067020008670200086702000867020008EB
:1001500067020008670200086702000867020008DB
:1001600067020008670200086702000867020008CB
:1001700067020008670200086702000867020008BB
:1001800067020008670200086702000867020008AB
:10019000670200086702000867020008670200089B
:1001A00067020008670200086702000800F002F812
:1001B00000F03CF80AA090E8000C82448344AAF1C5
:1001C0000107DA4501D100F031F8AFF2090EBAE8C3
:1001D0000F0013F0010F18BFFB1A43F0010318477B
:1001E00084C90000A4C90000103A24BF78C878C1AF
:1001F000FAD8520724BF30C830C144BF04680C602D
:10020000704700000023002400250026103A28BF74
:1002100078C1FBD8520728BF30C148BF0B60704778
:100220001FB500F0ADFF1FBD10B510BD00F031F8D7
:100230001146FFF7F5FF00F041FF00F04FF803B45F
:10024000FFF7F2FF03BC00F057F8000009488047B1
:1002500009480047FEE7FEE7FEE7FEE7FEE7FEE7A8
:10026000FEE7FEE7FEE7FEE704480549054A064BC0
:1002700070470000D90F0008AD0100087800002089
:10028000780600207802002078020020704770472E
:100290007047754600F02CF8AE4605006946534697
:1002A00020F00700854618B020B5FFF7DDFFBDE858
:1002B00020404FF000064FF000074FF000084FF0CD
:1002C000000B21F00701AC46ACE8C009ACE8C0095E
:1002D000ACE8C009ACE8C0098D46704710B50446CB
:1002E000AFF300802046BDE81040FFF7A8BF000034
:1002F000004870471800002001491820ABBEFEE7F7
:10030000260002007047000038B501244EF67D70CB
:1003100000F0C4FA12A04EF67D731F220A2100904D
:10032000142000F029F9C82000F0AAFE11E04FF6D1
:10033000FF7000F0B3FA002000F0B0FA4FF47840FC
:1003400000F0ACFA4FF4FC6000F0A8FA1F2000F0B7
:10035000A5FA201EA4F10101CCB2E8D138BD0000FD
:10036000436F6C6F7220546573740000F8B50646D5
:100370000F4614461D464FF6FF703B46224639464F
:100380000090304600F002FA4FF6FF702B463246DE
:1003900039460090304600F0F9F948F210406A1EE4
:1003A00093B291B2721C009090B2224600F0EEF926
:1003B00044F208202B46224629460090304600F0A1
:1003C000E5F948F21040631E9AB27B1C99B2631E95
:1003D000009098B22B4600F0D9F944F208202B4641
:1003E000224639460090204600F0D0F9F8BD0000C2
:1003F00008B54EF67D7000F051FA23A04EF67D73DD
:100400001F220A210090102000F0B6F84FF47A70F5
:1004100000F036FE4EF67D7000F040FA1EA04EF65B
:100420007D734FF6E0721E210090102000F0A4F8BA
:100430001DA04EF67D731F2232210090102000F087
:100440009BF81DA04EF67D734FF478424621009034
:10045000102000F091F81CA04EF67D731F2264213D
:100460000090002000F088F81BA04EF67D734FF43A
:10047000784282210090002000F07EF84FF4E16085
:1004800000F0FEFD08BD0000CEC4D7D6CFD4CABE52
:10049000B2E2CAD400000000C8ABB6AFB5E7D7D30C
:1004A000BCBCCAF500000000D7A8D7A2D2BABEA72C
:1004B000C5FAB7A200000000C8ABB3CCBCBCCAF5FB
:1004C000D6A7B3D60000000054656C3A31353938F0
:1004D00039333133353038007777772E716474656E
:1004E00063682E6E65740000F0B50A460021002393
:1004F000002400BF3DE0012505FA01F3156805EA77
:1005000003049C4234D105684F000326BE40B54326
:10051000056015794E00B5400668354305601579CC
:10052000012D02D01579022D16D185684F000326C2
:10053000BE40B543856055794E00B5408668354369
:100540008560456801268E40B543456045689679CB
:100550008E40B6B235434560C5684F000326BE40A5
:10056000B543C560D5794E00B540C6683543C56012
:10057000491C1029BFD3F0BD2DE9F84F0746884626
:1005800093469A46DDF828900097B3E099F800006A
:1005900080283DDA99F800600D2E05D1009F08F102
:1005A00010001FFA80F830E0202E03DDA6F12000B5
:1005B00086B200E00026002422E000251CE004EBC7
:1005C00006105049085C80212941084040B108EBE1
:1005D000040291B27A1990B25A4600F034F909E057
:1005E000D34507D008EB040291B27A1990B2524673
:1005F00000F029F9681CC5B2082DE0DB601CC4B20C
:10060000102CDADB07F1080087B209F1010971E06B
:10061000002668E006EB06103B4911F8100099F837
:10062000001088425DD106EB0610374901EB40000F
:10063000407899F80110884253D100244FE00025FA
:1006400020E006EB0610304901EB4000801C10F85A
:10065000141080202841014041B108EB040291B2FE
:100660007A1990B25A4600F0EEF809E0D34507D067
:1006700008EB040291B27A1990B2524600F0E3F806
:10068000681CC5B2082DDCDB002524E006EB061053
:100690001D4901EB4000801C012101EB4401405C3D
:1006A00080212941084048B108EB040291B27A192F
:1006B000083290B25A4600F0C6F80AE0D34508D096
:1006C00008EB040291B27A19083290B2524600F057
:1006D000BAF8681CC5B2082DD8DB601CC4B2102C57
:1006E000ADDB701C86B2322E94DB09F1020907F1F2
:1006F000100087B299F8000000287FF447AFBDE8EA
:10070000F88F00008A110008FC1E00082DE9F05F38
:100710000746884692469946002531E000242BE0A2
:1007200019490A9801EBC01000EB850010F804B0DD
:1007300000261DE08020304100EA0B0050B108EB9C
:10074000050291B207EBC402324490B2524600F067
:100750007AF80BE0CA4509D008EB050291B207EB25
:10076000C402324490B24A4600F06DF8701CC6B222
:10077000082EDFDB601CC4B2042CD1DB681CC5B2C0
:10078000202DCBDBBDE8F09F7B1700082DE9FF4F44
:1007900083B0804689464946404600F0E8F905980E
:1007A000A0EB08050698A0EB0906002D02DB01204E
:1007B000029003E04FF0FF3002906D42002E02DB0A
:1007C0000120019003E04FF0FF30019076424FEAA4
:1007D000450A4FEA460BB54219DDABEB050400278D
:1007E00012E049464046109A00F02DF8002C05DB37
:1007F000A4EB0A04019848441FFA80F95C4402986B
:1008000040441FFA80F87F1CAF42EADD18E0AAEBF3
:100810000604002712E049464046109A00F013F8FB
:10082000002C05DBA4EB0B04029840441FFA80F86F
:100830005444019848441FFA80F97F1CB742EADD0E
:1008400007B0BDE8F08F70B505460E461446701C23
:1008500083B2681C82B23146284600F061F920124A
:1008600000F090F9E0B200F08DF970BD1CB50121E7
:10087000022000F025FA4FF47E40009002208DF80F
:10088000050001208DF8040000208DF8060069465F
:100890000148FFF729FE1CBD0004024070B5044664
:1008A0009F237F220021084600F03AF92C2000F017
:1008B00095F900250BE0002606E0201200F062F911
:1008C000E0B200F05FF9761CA02EF6D36D1C802DEF
:1008D000F1D370BD10B50446FFF7C8FF00F00CF966
:1008E000112000F07BF9782000F0CAFBB12000F065
:1008F00075F9012000F046F92C2000F043F92D2075
:1009000000F040F9B22000F069F9012000F03AF956
:100910002C2000F037F92D2000F034F9B32000F03E
:100920005DF9012000F02EF92C2000F02BF92D208C
:1009300000F028F9012000F025F92C2000F022F920
:100940002D2000F01FF9B42000F048F9072000F036
:1009500019F9C02000F042F9A22000F013F902209A
:1009600000F010F9842000F00DF9C12000F036F9F4
:10097000C52000F007F9C22000F030F90A2000F08D
:1009800001F9002000F0FEF8C32000F027F98A20CA
:1009900000F0F8F82A2000F0F5F8C42000F01EF965
:1009A0008A2000F0EFF8EE2000F0ECF8C52000F00F
:1009B00015F90E2000F0E6F8362000F00FF9C020FF
:1009C00000F0E0F8E02000F009F90F2000F0DAF87C
:1009D0001A2000F0D7F80F2000F0D4F8182000F00B
:1009E000D1F82F2000F0CEF8282000F0CBF82020FE
:1009F00000F0C8F8222000F0C5F81F2000F0C2F86F
:100A00001B2000F0BFF8232000F0BCF8372000F0D6
:100A1000B9F8002000F0B6F8072000F0B3F8022083
:100A200000F0B0F8102000F0ADF8E12000F0D6F8AA
:100A30000F2000F0A7F81B2000F0A4F80F2000F012
:100A4000A1F8172000F09EF8332000F09BF82C202E
:100A500000F098F8292000F095F82E2000F092F888
:100A6000302000F08FF8302000F08CF8392000F0B2
:100A700089F83F2000F086F8002000F083F8072076
:100A800000F080F8032000F07DF8102000F07AF8E4
:100A90002A2000F0A3F8002000F074F8002000F0F5
:100AA00071F8002000F06EF87F2000F06BF82B202A
:100AB00000F094F8002000F065F8002000F062F8E3
:100AC000002000F05FF89F2000F05CF8F02000F0BC
:100AD00085F8012000F056F8F62000F07FF800209D
:100AE00000F050F83A2000F079F8052000F04AF8BC
:100AF000292000F073F810BD10B54FF4805007495D
:100B00000880642000F0BCFA4FF480500349891E2D
:100B10000880322000F0B4FA10BD00001A04024030
:100B2000F0B504460D4616461F462A2000F056F83A
:100B3000002000F027F8E0B200F024F8002000F0D8
:100B400021F8F0B200F01EF82B2000F047F800204A
:100B500000F018F8E8B200F015F8002000F012F8E4
:100B6000F8B200F00FF82C2000F038F8F0BD30B5E6
:100B700004460D462B46224629462046FFF7D0FF65
:100B800030BD000000214FF40062134B1A80521058
:100B90009B1E1A80082116E000F080022AB14FF453
:100BA00000420D4B9B1E1A8003E04FF400420A4B9B
:100BB0001A804FF40052084B1A809B1E1A8042067E
:100BC000100E4A1ED1B20029E6DC4FF40062024B3F
:100BD0009B1E1A80704700001A04024000214FF447
:100BE0000062124B1A8052101A80082116E000F0A1
:100BF00080022AB14FF400420C4B9B1E1A8003E086
:100C00004FF40042094B1A804FF40052074B1A80F0
:100C10009B1E1A804206100E4A1ED1B20029E6DC45
:100C20004FF40062014B9B1E1A8070471A04024069
:100C3000F8B500244EF67D70FFF730FE1CA04EF68E
:100C40007D734FF47842142100901020FFF794FC3C
:100C50004FF47A7000F014FA4EF67D70FFF71EFE26
:100C600000BF21E0032094FBF0F040011E3085B26C
:100C7000032094FBF0F100FB114000EB80004FF6E5
:100C8000FF7101EAC0060D49601C085C4EF67D73D9
:100C90004FF47842294600903046FFF737FD642034
:100CA00000F0EEF9601CC4B20A2CDBDBF8BD0000DA
:100CB0004E756D2054657374000000000C00002018
:100CC00029B1064A12680243044B1A6004E0034A41
:100CD00012688243014B1A6070470000443802409A
:100CE00008B54EF67D70FFF7D9FD56A04EF67D7320
:100CF0001F22002100901020FFF73EFC55A04EF669
:100D00007D734FF47842142100901020FFF734FCDB
:100D10003A23712226210F20FFF728FB51A04EF61F
:100D20007D734FF6E072282100901020FFF724FC1D
:100D30005823712244210F20FFF718FB4DA04EF6D7
:100D40007D731F22462100901020FFF715FC7623AB
:100D5000712262210F20FFF709FB4AA04EF67D7336
:100D60004FF47842642100901020FFF705FC49A061
:100D70004EF67D731F22782100901020FFF7FCFBB8
:100D800048A04EF67D734FF478428C2100901020DD
:100D9000FFF7F2FB474840794EF67D734FF47842F7
:100DA0007D2100906420FFF7B1FC4FF47A7000F0D1
:100DB00067F9404800794EF67D734FF478427D2103
:100DC00000906420FFF7A2FC4FF47A7000F058F90D
:100DD0003848C0784EF67D734FF478427D210090FC
:100DE0006420FFF793FC4FF47A7000F049F9314822
:100DF00080784EF67D734FF478427D210090642018
:100E0000FFF784FC4FF47A7000F03AF929484078F3
:100E10004EF67D734FF478427D2100906420FFF7F9
:100E200075FC4FF47A7000F02BF9224800784EF6EA
:100E30007D734FF478427D2100906420FFF766FCBB
:100E400008BD0000C8ABB6AFB5E7D7D3BCBCCAF588
:100E500000000000D2BABEA7B2E2CAD4B3CCD0F22E
:100E600000000000D1D5C9ABCCEEB3E4B2E2CAD4E5
:100E700000000000CEC4D7D6CFD4CABEB2E2CAD4D6
:100E800000000000CDBCC6ACCFD4CABEB2E2CAD40A
:100E90000000000053313A4D6F76652E202020204F
:100EA0000000000053323A53656C6C656374202077
:100EB000000000000C0000200CB500200190009004
:100EC0004148006840F480303F49086000BF3E4818
:100ED000006800F4003000900198401C01900098D8
:100EE00018B90198B0F5A04FF1D13748006800F467
:100EF000003010B10120009001E000200090009827
:100F0000012860D130484030006840F080502E49C0
:100F1000403108602D48006840F440402B4908608B
:100F200029480830006828490831086008460068E8
:100F300040F4004008600846006840F4A050086093
:100F40002348091F0860081F006840F08070091FCF
:100F5000086000BF1C48006800F000700028F9D04D
:100F60001A48006840F480301849086000BF1748EC
:100F7000406800F480300028F9D01448006840F43C
:100F800000301249086000BF1048406800F400308B
:100F90000028F9D040F205700E4908600A48083070
:100FA000006820F00300084908310860084600681E
:100FB00040F00200086000BF03480830006800F0FD
:100FC0000C000828F8D10CBD003802400070004029
:100FD000195A4007003C024010B51548006840F41B
:100FE0007000134908601348006840F0010011497F
:100FF000086000200F49083108600E4800680E495B
:1010000008400C4908600D48091D0860081F006869
:1010100020F48020091F0860002006490C31086078
:10102000FFF74AFF4FF0006001498039086010BDAA
:1010300088ED00E000380240FFFFF6FE103000248B
:101040004FF0E021096921F004014FF0E022116125
:10105000C21700EB5272C2F3C702074B1A7019464F
:10106000097801EB4102C2EBC1114FF6FF7202EAAF
:10107000C101024A118070470000002002000020D8
:1010800001460D4A12884A434FF0E0235A6100227C
:101090009A6101221A6100BF4FF0E022106900F04E
:1010A00001021AB100F48032002AF5D000224FF07C
:1010B000E0231A619A61704702000020FFF78CFF5D
:1010C000B420FFF7BDFF19E00020FFF703FC4FF449
:1010D00000700B490880FFF703FEFFF715F9FFF7D3
:1010E000A7FDFFF785F900F00DF84FF49660FFF7C4
:1010F000C7FF4FF400700249891C0880E4E7000034
:10110000180402402DE9F8434EF67D70FFF7C6FB48
:1011100016A04EF67D731F220A2100901020FFF7C3
:101120002BFA4FF47A70FFF7ABFF4EF67D70FFF7A6
:10113000B5FB4FF00008002414E000250FE0404606
:1011400008F101080D490E5C404608F101080F5CEA
:101150003046FFF717FD3846FFF714FD6D1CA02D34
:10116000EDDB641C802CE8DBBDE8F883CDBCC6ACAD
:10117000CFD4CABEB2E2CAD400000000622B00087D
:101180004FF04070E1EE100A7047000000000000D0
:1011900000000000000000000000001010101010FF
:1011A0001010101000001010000000006C6C2424BF
:1011B000000000000100000000000024242424FEA0
:1011C00048484848FC909090900000103C54929001
:1011D000503814121292547810000000225C94A827
:1011E000481010242A52548800000000304848500B
:1011F000206E54948C888A740000000030301010E7
:101200000000000000000000000000040810102092
:1012100020202020201010080400008040202010F2
:10122000101010101020204080000000000010540A
:10123000381038541000000000000000001010109A
:1012400010FE101010100000000000000000000050
:10125000000000000000101020000000000000004E
:1012600000FE000000000000000000000000000080
:101270000000000000001010000000000404080836
:1012800010102020404080800000000038448282FE
:101290008282828282824438000000001070101026
:1012A000101010101010107C0000000038448282D2
:1012B00004081020408284FC0000000038448202B0
:1012C000043804020282443800000000040C1414A4
:1012D00024244444FE04040E00000000FC808080AE
:1012E000B8C4820202828478000000003C428280FE
:1012F000B8C4828282824438000000007E428204A8
:101300000408080810101010000000003844828201
:10131000443844828282443800000000384482828B
:101320008282463A02824438000000000000101019
:10133000000000001010000000000000000010106D
:10134000000000000010102000000000000006183F
:10135000608060180600000000000000000000002F
:10136000FE0000FE00000000000000000000C03091
:101370000C020C30C00000000000003844828202E1
:101380000408101010001010000000003844829A69
:10139000AAAAAAAAAA9680423C000000101010280F
:1013A000282844447C4444EE00000000FC424242B1
:1013B000427C4242424242FC000000003C448280A7
:1013C000808080808282443800000000F8444242DD
:1013D00042424242424244F800000000FC44424083
:1013E000447C4440404244FC00000000FC44424035
:1013F000447C4440404040F000000000344C828077
:1014000080808E8484844C3400000000EE44444488
:10141000447C4444444444EE000000007C1010101E
:10142000101010101010107C000000003E0808087A
:10143000080808080888887000000000EE44484842
:1014400050605048484444EE00000000E0404040F6
:1014500040404040404244FC00000000C6446C6CE8
:101460006C545454444444EE00000000CE44646480
:101470006454544C4C4C44E40000000038448282D4
:10148000828282828282443800000000F844424214
:1014900042447840404040E00000000038448282EE
:1014A0008282828282BA443C02000000F0484444B6
:1014B00044487048444444E6000000003C448280B4
:1014C00040300C0202824478000000007C549210EC
:1014D000101010101010103800000000EE444444AA
:1014E000444444444444443800000000EE4444442E
:1014F000442828282810101000000000EE445454FE
:10150000545454542828282800000000EE4444284D
:1015100028101028284444EE00000000EE4444281F
:101520002828101010101038000000007E44840895
:1015300008102020408284FC0000001C10101010B5
:1015400010101010101010101C000000EE44545425
:10155000FE54545428282828000000701010101041
:10156000101010101010101070000030488400008F
:10157000000000000000000000000000000000006B
:101580000000000000000000FE00004020000000FD
:10159000000000000000000000000000000000004B
:1015A0007884047C84848C7600000000C040404035
:1015B00058644242424264580000000000000000AB
:1015C0003844808080804438000000000C0404040B
:1015D000344C848484844C360000000000000000F9
:1015E000788484FC80808478000000001824202007
:1015F000F8202020202020700000000000000000C3
:101600003A444478807C82827C000000C0404040A4
:1016100058644444444444EE0000000010100000AC
:1016200030101010101010380000000010100000D2
:10163000301010101010109060000000C0404040AA
:101640005C485060504844EE00000000301010101C
:1016500010111010101010390000000000000000E0
:10166000ACD29292929292D600000000000000004C
:1016700058E44444444444EE0000000000000000EC
:10168000384482828282443800000000000000005A
:10169000D864424242645840E0000000000000006C
:1016A000364C8484844C34040E000000000000009A
:1016B0006C3020202020207000000000000000007E
:1016C000788884601884447800000000002020207E
:1016D000F820202020202418000000000000000036
:1016E000C64242424242463A00000000000000006A
:1016F000EE444428282810100000000000000000DC
:10170000EE44445454282828000000000000000043
:10171000EE442810102844EE0000000000000000F5
:10172000EE444428281010A0C00000000000000073
:101730007E448810204284FC0000000C1010101021
:1017400010601010101010100C000010101010106D
:101750001010101010101010100000C020202020B9
:101760002018202020202020C000000000000000C1
:1017700000728C000000000000000000000000006B
:101780001FE000003FF000003FF000001FE00001FC
:1017900080060003C00F0003C00F0003C00F00034A
:1017A000C00F0003C00F0003C00F0003C00F0003F1
:1017B000C00F000300030000000000000000000054
:1017C0000000000300030003C00F0003C00F00036C
:1017D000C00F0003C00F0003C00F0003C00F0003C1
:1017E000C00F0003C00F0001800600001FE00000D2
:1017F0003FF000003FF000001FE00000000000008C
:101800000000000000800000018000000380000054
:1018100007800000078000000780000007800000AC
:10182000078000000780000007800000078000009C
:1018300007800000018000000000000000000000A0
:101840000000000001800000078000000780000009
:10185000078000000780000007800000078000006C
:101860000780000007800000078000000380000060
:101870000180000000800000000000000000000067
:101880001FE000003FF00000FFF00001FFE000005B
:1018900000060000000F0000000F0000000F000015
:1018A000000F0000000F0000000F0000000F0000FC
:1018B000000F00001FE300007FF800007FF8000029
:1018C0001FE0000300000003C0000003C00000038D
:1018D000C0000003C0000003C0000003C0000003FC
:1018E000C0000003C0000001800000001FF00000E5
:1018F0003FF800003FFC00001FFE00000000000356
:10190000FF800001FFC00000FFC000007F800000DA
:1019100000180000003C0000003C0000003C0000FB
:10192000003C0000003C0000003C0000003C0000C7
:10193000003C00007F8C0001FFE00001FFF0000090
:101940007F800000000C0000003C0000003C000014
:10195000003C0000003C0000003C0000003C000097
:10196000003C0000003C0000001800007F800000E8
:10197000FFC00001FFC00003FF8000000000000066
:1019800000000002000100030003000380070003C1
:10199000C00F0003C00F0003C00F0003C00F0003FF
:1019A000C00F0003C00F0003C00F0003C00F0003EF
:1019B000C00F00031FE300007FF800007FFC000061
:1019C0001FE0000000030000000F0000000F0000F7
:1019D000000F0000000F0000000F0000000F0000CB
:1019E000000F0000000F0000000F000000070000C3
:1019F00000030000000100000000000000000000E3
:101A00001FFC00003FF800003FF000001FE0000155
:101A100080000003C0000003C0000003C0000003FA
:101A2000C0000003C0000003C0000003C0000003AA
:101A3000C00000031FE000007FF800007FF80000F6
:101A40001FE0000000030000000F0000000F000076
:101A5000000F0000000F0000000F0000000F00004A
:101A6000000F0000000F0000000600003FE0000033
:101A70007FF00000FFF00001FFE000000000000028
:101A80001FFC00003FF800003FF000001FE00001D5
:101A900080000003C0000003C0000003C00000037A
:101AA000C0000003C0000003C0000003C00000032A
:101AB000C00000031FE000007FF800007FFC000072
:101AC0001FE0000300030003C00F0003C00F00036A
:101AD000C00F0003C00F0003C00F0003C00F0003BE
:101AE000C00F0003C00F0001800600001FE00000CF
:101AF0003FF000003FF000001FE000000000000782
:101B0000FFE00003FFC00001FF880000FF18000095
:101B10000038000000780000007800000078000025
:101B200000780000007800000078000000780000D5
:101B30000078000000180000000000000000000015
:101B4000000000000018000000780000007800008D
:101B500000780000007800000078000000780000A5
:101B600000780000007800000078000000380000D5
:101B70000018000000080000000000000000000045
:101B80001FE000003FF000003FF000001FE00001F8
:101B900080060003C00F0003C00F0003C00F000346
:101BA000C00F0003C00F0003C00F0003C00F0003ED
:101BB000C00F00031FE300007FF800007FFC00005F
:101BC0001FE0000300030003C00F0003C00F000369
:101BD000C00F0003C00F0003C00F0003C00F0003BD
:101BE000C00F0003C00F0001800600001FE00000CE
:101BF0003FF000003FF000001FE000000000000088
:101C00001FE000003FF000003FF000001FE0000177
:101C100080060003C00F0003C00F0003C00F0003C5
:101C2000C00F0003C00F0003C00F0003C00F00036C
:101C3000C00F00031FE300007FF800007FFC0000DE
:101C40001FE0000000030000000F0000000F000074
:101C5000000F0000000F0000000F0000000F000048
:101C6000000F0000000F0000000600001FE0000051
:101C70003FF000007FF00000FFE0000000000000E7
:101C80000000000000000000000000000000000054
:101C90000000000000000000000000000000000044
:101CA0000000000000000000000000000000000034
:101CB0000000000000000000000000000000000024
:101CC0000000000000000000000000000000000014
:101CD0007800000078000000780000007800000024
:101CE0007800000078000000000000000000000004
:101CF00000000000000000000000000000000000E4
:101D000000000000000000000000000000000000D3
:101D100000000000000000000000000007000000BC
:101D20000F8000000F8000000F80000007000000FF
:101D300000000000000000000000000000000000A3
:101D40000000000000000000070000000F800000FD
:101D50000F8000000F80000007000000000000005E
:101D60000000000000000000000000000000000073
:101D70000000000000000000000000000000000063
:101D8000000000000000000000000007C006000F77
:101D9000E0060000000C0030181800301818003061
:101DA00018300030183000301860003008C00007CC
:101DB000C0C0000FE080000000000000000FE00045
:101DC0000607C000063018000C3018000C30180050
:101DD0001830180030301800303018006000000053
:101DE000C00FE000C007C0000000000000000000BD
:101DF00000000000000000000000000000000000E3
:101E000000000000000000000000000000000000D2
:101E10000000000700E0000887FC00088E030008AF
:101E2000980180071800800030000000300000009A
:101E30007000000060000000600000006000000012
:101E40006000000060000000700000003000000032
:101E50003000000038000000180100000C030000F2
:101E600007FC000001F0000000000000000000007E
:101E70000000000000000000000000000000000062
:101E80000000000000000000000000000000000052
:101E90000000000000000000000000000000000042
:101EA0000000000000000000000000000000000032
:101EB00000000000000000003FF000007FF0000084
:101EC0007FE00000FFC000000000000000000000F4
:101ED0000000000000000000000000000000000002
:101EE00000000000000000000000000000000000F2
:101EF000000000000000000000000000B5E7020044
:101F0000020002007FF0421042107FF042104210A7
:101F10007FF042000208020801F800000000D7D359
:101F20007FF000200040008001000200FFF8020066
:101F3000020002000200020002000E000000000089
:101F4000C8AB0100010002800440082010102FE8F7
:101F5000C106010001001FF00100010001007FFC2B
:101F60000000B6AF004000407C40004001FC00444F
:101F7000FE4420442044208448844484FD044504D5
:101F800002280410BCBC10201020102013FEFC20DE
:101F90001020102015FC18843088D04810501020D4
:101FA000105051882606CAF50100012001100110C9
:101FB0007FFC0380054005400920111021084104E1
:101FC0000102010001000100D2BA0080404027F860
:101FD000114001408278424816A81AD0235022208E
:101FE00042204250028800000000BEA73FE02020AF
:101FF0003FE020203FE00000FDF885088508FDF85F
:1020000085088508FDF8850800000000B2E2000898
:102010004F8828880AA88AA84AA80AA82AA82AA80D
:102020004228450884888888103800000000CAD4F7
:102030004050204820400FF80040E0402740224018
:10204000224022202A2833A82E1800080000000071
:10205000B3CC00001BF0E210221023F0F8002000A7
:1020600033F068806080A3F02080208027F8000093
:102070000000D0F2020001003FF820002FF02020E5
:10208000224021803FF8208820904080408083803B
:1020900000000000D1D5200010F87E20444028F830
:1020A0007E8848A850A864A848A872A884501888B8
:1020B000610800000000C9AB100010003FE0404084
:1020C00080807FF04210421042107FF040004008B4
:1020D00040083FF800000000CCEE20802FF8208060
:1020E00027F0F41027F0241027F0241027F03410E4
:1020F000CFF80220041000000000B3E40400020046
:10210000FFF80800104020207FF008900880088029
:10211000088010882088C07800000000CEC4040029
:1021200002000200FFF810401040088008800500FF
:102130000200050008803060C01800000000D7D6FB
:1021400004000200FFF8800880083FC00080010002
:102150000200FFF80200020002000E000000000072
:10216000CFD43FE0202020203FE0202020203FE06F
:1021700008804890289028A008800880FFF8000078
:102180000000CABE00003FE0000000000000FFF8B1
:1021900002001240122022104208820802000E00A3
:1021A00000000000CDBC7FF84008440847C84848FC
:1021B000548843084CC8733840884C08430840880A
:1021C0007FF800000000C6AC0080208020802080C6
:1021D0003FF02000200020003FC020402040204051
:1021E0004040804000000000B4A5204038404840F6
:1021F00091F07D50555055507D5055F054407C40E5
:10220000545057F88C0800000000C3FE2220222002
:1022100027F8FA2027F0241027F03410E7F0208068
:102220002FF821402220EC1800000000CAE4408072
:102230004140F22044108BE8A000F78824A827A88A
:1022400034A8E7A824A8248825B800000000C8EB1B
:1022500008000400040002000200050005000880D8
:10226000088010401040202040108008000000002E
:10227000C8AB020002000500088010402020DFD813
:10228000020002001FC0020002000200FFF800006E
:102290000000B3CC00001BF0E210221023F0F80085
:1022A000200033F068806080A3F02080208027F831
:1022B00000000000BCBC208020802080F7F020803F
:1022C000208027E03220E22021402080214022206F
:1022D000EC1800000000CAF50200024002200200D3
:1022E000FFF807000A800A8012402220421082086C
:1022F0000200020000000000D6A702000200FFF862
:10230000020002007FE0102010400880050002005B
:10231000050018C0E03800000000B3D620802080FF
:1023200023F0F880208027F828203020E7F82020AC
:10233000222021202020E0E000000000D7A8020099
:1023400002007FF004000400FFF8080010003FE0E6
:10235000002000401C800300008000000000D7A285
:1023600001004080200017F00080808040800080C5
:1023700017F010802080208040804FF8000000007F
:10238000C5FA204024402440F448245027602440CB
:102390003440E4402440244025482648E4380000E6
:1023A0000000B7A202002220221044007FF804009F
:1023B00008000FE0142024404280810006C0383815
:1023C00000000000B3C900A0009000807FF84080AA
:1023D00040907C90449044A044A0444858A84118A0
:1023E000820800000000B9A601000100F90023F0F6
:1023F000211021102110211021103910C2100210BB
:102400000410086000000000D2C600000020007820
:102410000CE47904516810307E6019981A3C2FE45E
:1024200048E40838003000600000D1A1000001201D
:10243000012003FC62203420042003FC240021B08E
:1024400021202220323E18000FE00000D4F10000CD
:10245000000010FC1304110C3DF8703E10D01590D4
:102460007CF0503E18101BFE023000200000CFEE22
:102470000000000003FE00607C4012FC1104110605
:10248000113611241F44794400C0009C01860000CD
:10249000C4BF000000000FE03C18200820043E04E8
:1024A000600460047E046004200C20081FF001809A
:1024B0000000B6CC0000080011FC103E3EF82D8C48
:1024C0002904490409043E8C50FC10881EC811FCE4
:1024D000100E0000B0B400000040006012FE1302B5
:1024E0003A427F4410C41BFE3C987190113011A0F9
:1024F0000078004C0000C8B70000004000F878C425
:102500001F8C313821EC2126413A7DE2272225FA21
:102510003D26012401040000B6A80000010001705E
:102520005FFC700420042FF801001100113821C451
:1025300031003F0063E040380000B3A40000000019
:102540000818086008C00B001E00181C7FF010005F
:10255000118010E01838098E0F000000B0B40000A0
:102560000040006012FE13023A427F4410C41BFE7A
:102570003C987190113011A00078004C0000B7B564
:102580000000000007F80600240014F8078C04047B
:102590002408261825F0647C64C220801FC0000037
:1025A000BBD8000000001FF030182008278C2C44F6
:1025B000284428442CC427842004300C1FF80380AE
:1025C000000000000000000000000000000000000B
:1025D00000000000000000000000000000000000FB
:1025E00000000000B4BF000000000000020100066F
:1025F0003FC00C3FE018030010020033366037265E
:10260000203E66301C643018642031FEE03F1FC05D
:102610001C0C00000C000704003E07F00001C00085
:102620000000000000000000000000000000C9AB36
:1026300000000000000001FE0003E3000703000C9F
:1026400003001C3F003BFFC03F30600C30200C30CB
:10265000200C10200C10600FFFC0083F0008000085
:102660000800600E3FE007FC0000000000000000D2
:102670000000000000000000CCEE000000000000A0
:1026800000030000FFE00C07F00C06000CFF803F89
:10269000F0E01FC0600CFE300CCC3004F83004FFBA
:1026A0002004C0201FFE603EC06001FFF001FFF06B
:1026B000006060004000000000000000000000001A
:1026C0000000B3E400000000000000200000300023
:1026D00007FFF03FFFE00300000601800C018008C7
:1026E00001C01807E00FFE7007E0000206000604B4
:1026F000000404000404000C06700C07E000000055
:10270000000000000000000000000000B2E2000035
:102710000000000000003039FC301FCC300706B04C
:102720000F06F01907B03137B03136F01F27F0012E
:1027300067F001E5F001E1F00041F00CF8B03CD8A1
:1027400030008C30008030000000000000000000ED
:10275000000000000000CAD40000000000000803D0
:10276000600C03700C0330003FE0003F8008010064
:102770003C0180047F80047D800C00800C10C00C24
:1027800010C00C18400C1C600F7E600670300000FA
:102790003000000000000000000000000000000009
:1027A000CEC400000000C00000E00000700001FF87
:1027B000E01FFFC0180100000300000600000E002B
:1027C000001C000E180007300001E00000F00000BF
:1027D000FC00018F000303C00201E00000000000C4
:1027E00000000000000000000000D7D6000000003C
:1027F0000000002000003F0031FFE03FC020380013
:102800003030FE2033C660100200000C00001800BB
:10281000001800000C0007FFE03FFFE0000400008C
:102820000C00000C00000000000000000000000090
:1028300000000000CFD400000000000007FF000FE0
:1028400003C00C00401FF8601800600800400E0133
:10285000C007FF0000000001840001840019878088
:102860000F8CE0078C2000CC0003FFE01FFFC000AE
:102870000000000000000000000000000000CABED0
:102880000000000000000E00001FFFC0007FE000FD
:102890000000000000000000000000003FC03FFFFB
:1028A000E00030000030000030000613000C13C0C0
:1028B0000C18F018180018180000000000000000A4
:1028C0000000000000000000CDBC0000000000007F
:1028D00007FF000F03801CC0C019FC6011C66033E5
:1028E000062033E63036FF30301FF030703030FCD9
:1028F00030339F3036002010E060187C400E01C05D
:1029000003FF00003800000000000000000000008D
:102910000000C6AC00000000000008180018080005
:10292000180800180800180C201FFFF01FF80018E6
:10293000000010000010F8001FFE001E030010032E
:102940000010030010030010030018020000000034
:10295000000000000000000000000000CFD40000D4
:102960000000000007FF000F03C00C00401FF860CC
:102970001800600800400E01C007FF0000000001C1
:1029800084000184001987800F8CE0078C2000CC24
:102990000003FFE01FFFC000000000000000000077
:1029A000000000000000CABE0000000000000E0091
:1029B000001FFFC0007FE0000000000000000000DA
:1029C000000000003FC03FFFE0003000003000008A
:1029D00030000613000C13C00C18F018180018185B
:1029E00000000000000000000000000000000000E7
:1029F000B4A50000000000000601800FC1801E6128
:102A000080304FC020CFE0078D303FC93033793060
:102A10003379303FFB3037FF203267E03FE3803FC0
:102A2000E3C03263603267F0304FB0000000000056
:102A300000000000000000000000C3FE00000000D5
:102A400000000030C000FFF00C79C00C1F800C7F2C
:102A5000E03FE0600CC0300CFC3004C03007C030F8
:102A60001E60603C3FC0041C00047FE000FFE000EB
:102A700030C00060600000000000000000000000A6
:102A800000000000CAE40000000000000C03800CFD
:102A90000FC0081C703F70001F9FC0101FC01000A7
:102AA00000367C3017E6301FE3B0067FB00277F0C7
:102AB00007E3F03F7FF01336F003263003263000A3
:102AC0000000000000000000000000000000C8EB53
:102AD00000000000000006000003800001C00000AC
:102AE000E00000700000780000CC0000C600018308
:102AF000000301800700C00600E00C0070180030E1
:102B0000180000300000000000000000000000007D
:102B100000000000000000000000000000000000B5
:102B200000000000000000000000000000000000A5
:102B30000000000000000000000000000000000095
:102B40000000000000000000000000000000000085
:102B50000000000000000000000000000000000075
:102B60000000A46BA46BA46CA46CA46CA46CA46BF8
:102B7000A46BA46BA46BA46BA46BA46BA46BA46BDD
:102B8000A46BA46B93A96205390330C328A32083E7
:102B900020A3208320832083188318631063086395
:102BA000084308430043004300430043106310639D
:102BB00018831863188318831863188310631063CD
:102BC00010831083188320A320A328C430C430E4CA
:102BD00039043904390439043904390439044124E5
:102BE0004124410438E438E430C430C328A428A484
:102BF00020C318833945EE35FEB7F697F655DCADA0
:102C0000DD31FF19FEF8FEF9FF19FF19FEF9F6D8BC
:102C1000F6B7EE76EE13D48B30C300023924D50C10
:102C2000EE0EE58CE56BE58BE58CE56BE54AED8B0F
:102C3000B4289BCAF670E60FE5EEE5EEE5EFEE0F81
:102C4000E5EE7AA7CD0CE5CEE5EFE60FEE30EE30FF
:102C5000EE30E5EF82E8DDF2F6F6EED5EED5EED514
:102C6000F6D6A46BA46CA46BA46BA46CA46CA46C2B
:102C7000A46CA46CA46BA46BA46BA46BA46BAC8BB2
:102C8000A40A6A8730E3288228A328A320A320A3CC
:102C90002083208318831063086308430843086374
:102CA000106310631063108310831083106310632C
:102CB00010631063106310831883188320A320A36C
:102CC00028C430C330E430E43904390438E439042A
:102CD000390439043904390439043904390439040C
:102CE00038E430E4390439043904390438E430E490
:102CF00020A418633966EE76FEB7FEB7F6B7EDF39B
:102D0000DD51FEF8FEF8FEF9FF19FF19FEF9F6D8BD
:102D1000F6B7EE76EE13C44A188300223924D52D77
:102D2000EDEEE58CE58CE58CE58CE56BE54BEDABEC
:102D3000ABE893AAF690E60FEE0FE5CEDD8DEE0F31
:102D4000E5EE7AC7CD2DE610E5EFE5EFEE30EE319A
:102D5000EE30E5CE7AC7DDF2F6F6EED5EED5F6D555
:102D6000F6F6A46BA46CA46BA46BA46BA46CA46C0B
:102D7000A46BA46BA46BA46BA46BA46BAC8C8349F5
:102D80004144288228C328C328A328A320A320A322
:102D90001883106310631063106310631883188323
:102DA0001883106310631063106310631063108343
:102DB00010831883188320A320A320A320A320A37B
:102DC0002083188318832083208320A328A428C469
:102DD00028C428C428C430E430E430E4390438E49A
:102DE0003904390430E430E430C430E430E430C431
:102DF00028C420A33125EE55FED7F696F6B7EE147B
:102E0000DD51FEF8FEF8FEF9FEF9FEF9FEF8F6D8FF
:102E1000F6B7EE76EDF2BBE920A300433103D52CE3
:102E2000EE2EE58CE58CE58CE5ACE58BE58CEDAC28
:102E3000B4289BCAF66FEE0FE60FE5CEDDADE5EEEA
:102E4000E5EE72A7CD2DE5EFE5CFE5EFEE31EE3102
:102E5000EE30E5EF7AE7D5F2F6F6F6F6EED5EED5FA
:102E6000F6F6A46BA46CA46BA48BA46CA46CA46CE9
:102E7000A46BA46BA46BA44BA44BAC8B72A728A22D
:102E800028C230E328C328C328C320A3188318838B
:102E900010631883188318831883186310631063F2
:102EA00010631063108318631883208318831063E2
:102EB000106310631063086308630863086310639A
:102EC00018831884188318A320A420A328C428C416
:102ED00030C430E430E438E4390430E430E430C461
:102EE00030C430E4392539043904310430E430E4A5
:102EF00028C420A428E4E615FED7F696F6B7EE35EA
:102F0000DD51FED8FEF8FEF9FEF9FEF8F6F8F6D827
:102F1000F6B7EE76EDF2AB8820A2006228E3D50C7E
:102F2000EE0EE58CE56BE56BE58BE56BE56BEDACEB
:102F3000B408A3EAFE90EE2FEE2FEE30EE2FEE2F28
:102F4000EE2F7AC7BC6AD54DE5CFE610EE51EE51B3
:102F5000EE30EE1082E7D5D2F716F6F6F6F6EED59D
:102F6000EED6A46CA46CA46CA48BA46BA46BA46B11
:102F7000A46BA46BA44BA46BAC8C624628A230E378
:102F800030E328C330E328C320A318A31883208389
:102F9000208320A320A31883188318831883188301
:102FA00020831883188318631063108310631063E1
:102FB0000883108308831083108310831883108381
:102FC0001083108310831083188320A420A420A4CE
:102FD00028C428C430C430C430E43104390439056D
:102FE000310430E428C428C428C428C428E43104A7
:102FF00028E420A41883CD73FED7F697F6B7F655CC
:10300000E592FED8FEF8F6F8F6F8F6F8F6D8F6B738
:10301000F697EE76EDF2AB681062004320C3CCEB7E
:10302000EDEDE58BE56BE56BE56BE56BDD4BEDAC55
:10303000A38793AAFE90EE0EE5EFEE2FE60FEE2F9C
:10304000EE4F72A6B429D50CE5CFE5EFEE30EE31A8
:10305000EE30E5EF7AA7D5F2F716F6F6F6D5EED60E
:10306000EEF6A46CA46CA46CA48CA46BA46BA46CEE
:10307000A46BA46BA48BAC6C5A05288238E328E3BC
:1030800028C328E328C320A320A320A320A328A388
:1030900020A320A320A3208320A3208318831883A8
:1030A00018631063108310831883188318831083A8
:1030B000108310831083108310831083188318A447
:1030C00020A428C428E430E428E428E431053105AC
:1030D0003104310431043104310430E430E430E4AB
:1030E0003104310428C428C420A420A420A418A496
:1030F000188410830842B4F1FEF8F6B7F6B8F65615
:10310000DD51F6F8FEF8FED8FED8F6D8F6B7F6B7D9
:10311000F696EE55EDD1B3881062004320A3CCCBD8
:10312000EDEDE56BE56BE58BE56BE56BDD2AED8B96
:10313000A3C88B69F66FE5EEEE0EEE2FE5EEE60E18
:10314000EDEE6A86BC6BDD6DE5EFE610EE10EE305D
:10315000EE51EE10AC4BDDF2F6F6F6F6F6D5EED506
:10316000EED6A46CA46CA46CA46CA46CA46CA46B2C
:10317000A46BA48BA46B5A0628A2310330E328E386
:1031800028E328C328E328C328C328C328C328A3C7
:1031900020A328A328A320A320831883188320A377
:1031A0001883188310831883188418841083088365
:1031B0000863086308630863106310631063106397
:1031C0001063188320A428C43104310439254166D2
:1031D00049864966416641654165496641453925EB
:1031E0003904390430E428E428C428E428C41884C5
:1031F000108408830022ACB0FEF8F6B7FED8F6764D
:10320000D4AFF6D8FEF9FEF8F6D8F6D7F6B7F697AB
:10321000EE76EE54E5B1C3C91882002320A3CCABEF
:10322000F60EE58CE56BE58BE56BE56BE54AED8B22
:10323000ABE89BCAFE90EE2FEE2FEE50EE2FEE0F76
:10324000EE0E7287BCCDD56DE5CFE5EFEE30EE51D9
:10325000EE31EE30AC0ADE13F716F6F6F6F6EEF6C1
:10326000F6F6A46CA46CA46CA46CA46CA46CA46B03
:10327000A46BA44B59E530C2390330E330E330E3AB
:1032800030E330E330E330E328C328C328E330E3FE
:1032900028E328C328A320A32083208320A3188306
:1032A000106308630863106310830883088308634E
:1032B000086308630863086308631063188318834E
:1032C0001883188418A420A420A428C428C430E497
:1032D00031053925392549664986416649A6416641
:1032E0004145412541253924392430E430E420A4E6
:1032F000108308830023B4B0FEF8F6B7F6D8F6B70B
:10330000D510EE76FF19FF19FEF8F6D8F6B7F69647
:10331000EE76EE34E5B1C3E930C3002320A3CCCB75
:10332000F60EE5ACE5ACE58CE5ACE58BE54BED8B5D
:10333000B408A40BFEB1EE50EE50EE50EE50EE2F5E
:10334000F64F6A86B46BE5EFDDCEE610E610EE517F
:10335000EE31EE0F8B28DE13F717F6F6F6F6F6F6DB
:10336000EEF6A46CA46CA46CA46CA46CA46BA44B2B
:10337000A46B6A6630E33923310330E330E3310371
:1033800030E330E330E330E330E330E330E330E3A5
:1033900028C328C320A320A318A318A3188310832D
:1033A000108310831083108310A310A40883086374
:1033B000086300630863086310631063106310837D
:1033C000188318A320A428C430E431053105392519
:1033D0003105310530E431053925392539253925BF
:1033E000392541653945392539053104390430E439
:1033F00020C410630002ACB0FF19F6D8F6D8FED88E
:10340000E592EE15FF19FF19FF19F6F8F6B7EE76FB
:10341000EE55E5F3DD70CBE9616300021883CCCB98
:10342000F60EE58CE5ACE5ACE58CE58BE58CEDCCFA
:10343000B4299BCAFE90EE2FEE2FEE2FEE30EE2F2A
:10344000EE4F72C6B42AE5CEDD8DE610EE51EE31B8
:10345000EE30E5EF82E8DE33F716EEF6EEF6F6D65E
:10346000F6F6A46CA46CA46CA46CA46CA44BA44B42
:1034700072C739033924310428E331033903310396
:1034800030E330E33903390330E330E330E330E352
:1034900028C328C320C320A320A320A318A318A3B4
:1034A00018A3108310A41084108408830883086470
:1034B00008830863086308631083188318831883DC
:1034C00010831883208420A420C428C430E4392524
:1034D0003925310530E528E428E531053905310580
:1034E0003104310539253925310530E430E4310422
:1034F00030E420A40843C532FF18F6D8F6D8FED829
:10350000E5D3E5F4FF19FF19FF19F6F9F6B7EE76E2
:10351000EE34E5F3DD2EC3888A0428A31062CCCBF9
:10352000F60EE58CE58CE5ACE58CE56BE56BEDAC7A
:10353000C489A40AF690EE2FEE2FEE0FEE0FEE2FB9
:10354000EE4F8307BCABDDAEDD8DE5EFEE31EE3047
:10355000E5CFE5CE7AE8DE13F716F6F6F6F6F6D600
:10356000F6F6A46CA46CA46CA46CA46BA44B72C7F8
:103570003903412439243103310339233103310321
:103580003903390339033103310331033103310482
:1035900028E328C328C320C320C320A320A320A33B
:1035A00018A318A4108408830863086300630863E1
:1035B000086308831083108408630863086310633A
:1035C0001063108318841884188320A420A420A4D6
:1035D00028E431053925310428E428C420C428E52D
:1035E0003105310528E43105310428E420C420C424
:1035F00020A418A40842B4F1FF18F6B7FED8FEF8CC
:10360000DD72D552FF39FF19FF19F6F8F6B7EE76DD
:10361000EE34E5D2D4ACC367B2E68A0428A2C4ABC8
:10362000F60EE58CE58CE5ACEDCDE5ACE58CEDACCE
:10363000C489B44BF691EE50EE50EE50EE0FEE2FE3
:10364000F6708308BCABDD8EE5CFE5CFE610EE511A
:10365000EE30E5CF7AC7DE13F716F6F6F6F6F6F695
:10366000F6F6A46CA46CA46CA46CA44B7B28494310
:1036700041243924290331244123310339033903F7
:103680003903390331033104310331033104310487
:1036900030E328E328C328C428E420C420C418A3A6
:1036A00020C418A418C418A410A4108410631063B4
:1036B0000863086308631083108408631063106351
:1036C00008630863086310631063108318A41884E8
:1036D000108318A420C430E439043905390428E4DF
:1036E0001884108418A418C428E520C418A418A4A9
:1036F00018A418A400029C4FFF19F6B7FED8FED8F4
:10370000E592CCF0FF19FEF9FF19F6F9F6B7EE765F
:10371000EE34E5D2DD2FD44BC367B2C56123B46B61
:10372000F62EE56CE58CE58CE5ACE58CE58CEDCC16
:10373000B428AC2BF690EE4FEE50EE30EE0FEE2F9D
:10374000F6708307BC6AE5AEE5CFE5EFE5EFE60F7F
:10375000EE0FE60F7AA7DDF3F716F6F6F6F6EEF6BD
:10376000F6F6A48CA48CA46CA46C8B8951843923A8
:1037700041443104392341443903310339033903C6
:10378000390331033104310428E330E430E33103F9
:10379000310428E428C328C420C320C420C420C482
:1037A00018A418A410A4108310830883088310831E
:1037B00010841083108410841883106310630863CE
:1037C0000863086310631063106310631063108351
:1037D000106310831083188318A420A428C428C45D
:1037E00028C418A408630863086318A418C40883CD
:1037F000108410840002730BFF18F6B7FEF8F6D899
:10380000F675D510F6D8FEF9FF19FF19F6D8EE9621
:10381000EE55EE13E570D46CCBC8C36779A4B44BF6
:10382000F62FE5ACE58CE5ACE5CDE58CE56CEDED92
:10383000B429A40BF690EE2FEE50E5EFE5EFEE5035
:10384000F67082E7BC8BDD8DDDAEE5EFEE0FEE109E
:10385000E5CFEE0F8308DDF3FF37F6F6F6F6F71740
:10386000F717A48CA46CA46C9C0B6A664144394481
:103870003124392441443924392339243924392441
:10388000310328E331043104310431033923310396
:103890003104310428E328E328E428E420E420E488
:1038A00018C418C410A410841084088308831084DA
:1038B0001083088308631083106308631063086330
:1038C0000863188328C330C330C330C328C32083A0
:1038D000188310631063108320A420C320A40863FE
:1038E000108318A318A418A410830863088308631E
:1038F0000863086300224A08FED7FED8FEF9F6D80E
:10390000FED7D531EE56FF19FF19FEF9F6D8F6B7F6
:10391000EE76EE14E571DCEDD46BCBC88A04B42BE3
:10392000F62FE5ACE58CE5ACE5ACE58CE58CEDCCB3
:10393000B429AC2BFE91EE30EE2FEE2FE5CEEE50FB
:10394000F66F8307B46BE5AEDDAEE5CEE60FE60FAE
:10395000E5EFE5EF8328D5D2FF37F6F6F6F6F6F673
:10396000F717A48CA46CA46C832849834144394480
:103970003944416441443944394439443924310497
:103980002904310431043103310339243924312429
:10399000310431043104290428E4290428E42905E8
:1039A00020E420E418C418A418A418A418A41883A8
:1039B00010830883108310831063088408630863EE
:1039C000208341044944516459A461845984514479
:1039D000410428C31883186328A330C31883004305
:1039E000004308830863086308630863086300638F
:1039F00000430043002318E5E635FEF9FF19FED821
:103A0000FED8D511CD32FF3AFEF9FF19F6F9F6D8F6
:103A1000F676EE55EDF3E590DCEDD4299A85BC4BB6
:103A2000F62FE58CE56BE58CE5ACE58CE56BEDAC54
:103A3000AC08AC4BFE90EE30EE0FEE0FEE30EE30F9
:103A4000F6509348BC6AE5AEE5EFE60FEE50EE3077
:103A5000EE30EE2F8B28D5D2F717F716F716F6F6BD
:103A6000F717A48CA46C9C2B622641443944312462
:103A700039444144414441443924312431243104FE
:103A80003104310331033104310431033923392442
:103A90003924310431043104310428E428E420E4D9
:103AA00020E420C418A418A418A310831084108440
:103AB000108310830863086308630863086318832E
:103AC000412461A46A057A458A868AA68AA68A66FE
:103AD000822569C4492428A3188310630043004346
:103AE0000043004308630043004300430043004396
:103AF0000043004300430042BD52FF39FF19FEF965
:103B0000FEF8CD118AA9FF19FEF9FEF9FEF9F6D8E3
:103B1000F697F676EE34E5B2DD2ED48BA2E6BC4BFA
:103B2000F64FE5ACE56CE58CE5ACE5ACE56BEDCCD2
:103B3000AC08A40BFEB1EE30E5EFE5CFEE50EE5051
:103B4000F6908B28BCABE5CEDDAFE610EE30EE1084
:103B5000EE31F6508B28D5B2FF37F6F6F716F6F7AA
:103B6000F717A46CA48C836941443124312439644F
:103B7000414441644144312431032903290428E3A9
:103B800028E328E428E428E33104392439243924BB
:103B90004144394439243124312431253125290542
:103BA00028E520C420C418A418A418A410841084E4
:103BB000088308831083106310630863086330E38D
:103BC00069E57A458AA692E79B27A328A348A327FD
:103BD000A3279AE68A6569C4410320A310630043C2
:103BE00000430043004300430043004300430043BD
:103BF0000043004300430001A470FF59FF19FEF980
:103C0000FEF9DD926123DDB4FF39F6F9F6F9F6D855
:103C1000F6B7F676EE34E5D2DD2FD48BAAE6B42AD9
:103C2000F64FE5ADE58CE5ACE58CE5ACE58CEDEC6F
:103C3000AC099BEBFEB1E5EFE5ADE5AEEE50EE5025
:103C4000F6707AC7B44BDDAEDDAEE5F0E610EE51AE
:103C5000EE51EE508B48D5D2FF37F6F6F6F6F6F673
:103C6000F6F7A48CA46C628629032924396549855A
:103C7000418539642924290428E428E320E320E449
:103C800020C320C328E331043104392439243924E2
:103C900039243104290428E420C420C420C420C4C9
:103CA00018C4108410831083108410840883088340
:103CB00008830883088308630863106318835164CA
:103CC00082658AA692E7A328AB48AB68AB88B38825
:103CD000B388AB68AB27A2E68245598438E32083DA
:103CE00008430043004300430043004300430043B4
:103CF00000430043002320A2CD30FF19FEF9FEF956
:103D0000F6D8EDF39286A3ADFF39F6F8F6F8F6D8BB
:103D1000F6B7F676EE35EE13E570DCCCAB07B40AF9
:103D2000F64FE5ADE56CE5ACE58CE58CE58CF5EDA5
:103D3000AC099BCAF670EE30EE2FEE50EE71EE50ED
:103D4000F6907AC7AC4AE5EEDDAFE610EE30EE3124
:103D5000EE10EE309369D5D3F737F6F6F6F6F6F6B1
:103D6000F6F6A48C9C2B49E52104314549A549A5CB
:103D700041852924290428E428E320C318C318C353
:103D800018A320C328E328E428E4310431043924AB
:103D90003924310428E428E428E428E428E4290527
:103DA00020E520E420C418C410A4108410841083DB
:103DB00010830883086308630863106330C37205C7
:103DC0008266828692E7A328AB68B3A9B3A9B3C978
:103DD000B3A9B388B388AB48A30792A67A05514428
:103DE00030E31883004300230043004300430043B3
:103DF0000043004300027266EDB1F6D8FEF9FEF909
:103E0000F697EE34D4EF92C8F6D8F6F8F6D8F6D88E
:103E1000F6B7F696EE76EE34E5B2E52EB347B42A61
:103E2000F64FE58CE5ACE5ACE5ACE5ACE58CEDCD6D
:103E3000B429A3EBF670EE0FEE30EE2FEE51EE50FC
:103E4000F6708308B46BE5EFE5EFEE30E5EFE5EFF4
:103E5000EE10EE307AC7D5D2FF37F716F6F6F6F643
:103E6000F716A48C93CA31442924398541A5398594
:103E70002924210420E320E420C318C418C418C353
:103E800020C420C420E328E431043104310439245F
:103E90003104310430E428E43104310429042905D3
:103EA000290528E520E520C418C420C420C418A48E
:103EB0001084108410831083188320834944824621
:103EC00069E561C592C79B28AB89B3C9BBEABBEA68
:103ED000BBE9BBC9BBA8B388B368AB27A2E68A65B8
:103EE00069A4492428C30843002300430043004336
:103EF0000043004300029369EDF2F696FEF9F6D80E
:103F0000F6B7F676F613AB6AE636FEF8F6D8F6D8CC
:103F1000F6B7F6B7F696EE75EDF3E54FBBA8C48B92
:103F2000F62FE58DE5ACE5ACEDCDE5CDE5ACEE0EDF
:103F3000C469A40AFEB1EE2FEE30EE50EE51EE70E1
:103F4000F6709348B44ADD8DE5EFE610EE31EE51A0
:103F5000EE30EE5082E8CDB2FF37F717F6F6F6F600
:103F6000F6F7ACAC83493124316541C641C62945D9
:103F700018E420E420E418C318C320C418C320E4C4
:103F800020E420C328E328E431043104392439240F
:103F900031043124312431243104310431253125D7
:103FA0003105290528E520C420C420E420C418A434
:103FB0001084108310631083188330E469C571E5A1
:103FC000392451A582A69B28ABA9BBEAC40AC42AFE
:103FD000C42AC40AC3E9BBA8BB88B368AB47A3071C
:103FE00092A6822569A4410318630023004300437D
:103FF0000043004300028B4AF633EE55F6F8F6D83C
:10400000F6D8F696F655CCAEDDD4FEF8F6D8F6D84E
:10401000F6D7F6B7F696F676EE35EDD2C40ACCAB07
:10402000F62FE58CE58CEDCDE5ACE5ACE5CDEDED21
:10403000C4A9AC4BFEB1EE2FEE2FEE2FEE50EE509A
:10404000F6707AC7A3E9DD8EDDAFE610EE10EE3034
:10405000E5CEE5CFBCCCDE12F737F6F6F6F7F6F68E
:10406000F717A48C7B283144318641E7398618E460
:1040700018E42104210420E420E320C418C418C457
:1040800018A320A420C328E331043904392441446F
:1040900039243904310430E430E428E428E420E40D
:1040A00020C418A418A410841084108310831063F3
:1040B000106310831083188328A3492461A5310459
:1040C000290551C57A469B28B3EAC42BCC6BCC6C2E
:1040D000CC6BCC4BCC2AC40AC3E9BBA8BB88B36861
:1040E000AB27A2E792A67A04514418830023004329
:1040F0000043004300026AA8F654EE55F6D8F6F8DD
:10410000F6D8F697F675DD51D511FEF8F6D7F6D844
:10411000F6D7F6B7F696F676EE35E5B1C40AC4AB37
:10412000F62FE5ADE5ADEDADE58CE5ACE5ACEDED3F
:10413000CCEABCACF690EE50EE50EE2FEE30EE50E6
:10414000F67072C79BC9D56DDD8EE60FEE30EE516D
:10415000EE0FEE2FB46BD5D2FF37F6F6F6F7F71762
:10416000F717A46C7B493964318639C7212518E4D7
:1041700021042904290320E310C310A310A318A3CA
:1041800020A320A328C328E431043104392439248E
:1041900039043904310439043104312531253125FC
:1041A00039453125290428E428E428E428C428C412
:1041B00020A3188320A328A438E45164412410A428
:1041C000498561C67A67A348BC2BCC8CCCADD4ADF5
:1041D000D4ADD4ACCC6BCC4BCC2BC40AC3C9BBA8DC
:1041E000B368B368AB27A2E78A45596320830043CD
:1041F0000043004300025A48F675F696F6D8F6F8E2
:10420000F6D8F6B7F696DD92A38BF6B7F6D7F6D8C2
:10421000F6D7F6B7F696F676EE34EDB1C3E9C48B71
:10422000F62FE5CDE5ACE5ACE5ACE5ACE5ACE5AC51
:10423000D4CABC8BFE91F650EE50EE50EE50EE50CC
:10424000F69072E7A3EADDAEDDCFE610EE10EE31B8
:10425000E610EE308B27D5D2FF37F6F6F6F6F6F6F7
:10426000F6F6A46B836949E63986318618E420E4C2
:104270002104290428E318E318C318C418C318C478
:1042800020A320C428C428E428E43104392441248C
:1042900041444144414449644965498649A649C766
:1042A00051C7418641454145412541454125390494
:1042B00030E430E438E438E43903492428C439A62A
:1042C000836B7A888287ABAAC48CCCCDD4EED50E12
:1042D000DD0EDCCDD4ADD48CD46BCC4BCC0AC3C9B1
:1042E000BBA8BB88B388B368AB279286618428A338
:1042F0000043004300025A48F675F696F6D8FEF9D8
:10430000F6F8F6B8F676E5918A87DDD4F6D8F6D7D2
:10431000F6B7F6B7F696F696EE55EDD2C3E9CC8C25
:10432000F62FE5CDE5ADE5ACE5ACE5ACE5ACEDCD26
:10433000BC48AC4BFEB1EE50EE50EE50EE71EE507C
:10434000FEB07AE79368E5CEE5CEE60FEE30EE31CB
:10435000EE2FEE0F8B28D5D2FF37F6F6F6F6F6F6EF
:10436000F717A44C940B62873985212518E418E4CB
:10437000210329232923290320E418C318A410A406
:1043800010A318A320A320C328E331043104392447
:1043900039243924394441444965498651E751E774
:1043A00051E749A64966414541654145392430E414
:1043B00028C428A430E4494461A5516528E483ADAC
:1043C000AD12A3CC9308C44CD4EED50FDD2FDD4F36
:1043D000DD2FDD0EDCEEDCCDD4ADD48CCC4BCC0AA5
:1043E000C3E9BBA8BBA8BBA8BB88B3689AC669A42D
:1043F00028A3004300026289F675F696FEF9FF19BC
:10440000F6F9F6B7F656F634ABABC4B0FEF8F6B72D
:10441000F6B7F6B7F696F696EE55EDD2C3E9C48B2D
:10442000F64FEDCDEDCDE5ACEDADE5ACE5CDF5ED83
:10443000B4299BEAFEB1EE50EE30EE50EE50EE5055
:10444000F6907AC79348E5CEE5CFEE30EE31E61030
:10445000EE30EE308B07D5B2FF37F716F716F717A9
:10446000F717A46CA46C7B28292418E418C3210432
:104470002904290320E320E410C310A310A410A3EF
:1044800018A418C320C328C428E430E3310431043D
:1044900031243924392441454165418649A649C71B
:1044A00049A749864165496549854145412430C44C
:1044B00028A338E4516461C571E561A539C79C91B1
:1044C000C5D5BCF1ABCBD4EFD52FDD30DD50DD5001
:1044D000DD4FDD2FDD0EDCEEDCCDD4ADD48CCC4B4E
:1044E000C40AC3E9C3C9C3C9BBC8BBA8B3889AC6B9
:1044F00061842083000272EAF675F6B7FF19FF198E
:10450000FEF9F6D8F697F696CCAEB40DFEF8F6B7EF
:10451000F6B7F6B7F6B7F696EE75EDF2C3C9C48BEB
:10452000F650EDCDE5ADE5ACE5ACE5ACE5ACEDEDDB
:10453000BC69AC4CFED2EE71EE50EE50EE50EE5037
:10454000F6908328AC0ADDAEDDAEE5EFEE10EE307E
:10455000EE30EE0F8B07D5B2FF37F717F6F7F6F60A
:10456000F716A46C9C0B49E5088308A321042924B1
:104570002103210320C410A308A308830883088310
:10458000108310A318A320C428E430E43104392494
:10459000392439243924414441444165498651C76D
:1045A00049A749864965496551654945412430E433
:1045B00028C438E459857A05824651A5290439244E
:1045C0005A69AC4FC48EDD51DD71DD71DD50DD50B7
:1045D000DD50E54FE52FDD0EDCEEDCCDDCACD48C20
:1045E000CC4BCC2AC409C3E9BBC9BBC8BBA8B368C0
:1045F000928651440822730AF675F6B7FF19FF191F
:10460000FEF9F6D8F6B7F696DD30ABCBFED7F6B7A7
:10461000F6B7F6B7F6B7F696F676EE13C40ACCCC34
:10462000F650E5CDE5ADE5ACEDCDE5CDE5ACF5ED90
:10463000BC69AC4CFED3EE71EE70EE70EE70EE50D5
:10464000F6709389BC8BDD6DDDAEE5CEE5AEE61090
:10465000E60FEE2F8308CDB1FF37F6F6F6F6F6F645
:10466000F6F69C2B5A6718C3088308A320E420E3BE
:104670002904290320E418C318A310A308A310A336
:1046800010A310A318A420C428E431043124312439
:104690003104390439243924414441444965498667
:1046A00049864986494549655185516549653104C1
:1046B00030C43904516482459AC759C6106228C271
:1046C00028C18B09DD51DD91DD92DD71DD50DD50BA
:1046D000E570E550E54FE52FDD0EDCEEDCCDDCAC22
:1046E000D48CCC4BCC2AC409C3E9C3C9BBC9BBA871
:1046F000B347820530A272A9F655F6B7FF19FF1924
:10470000FF19F6F8F6B8F696E5B2B3ECF696F6B7FA
:10471000F6B7F6B7F6B7F696F676EE13CC4BCCECCA
:10472000F64FEDCDE5ADE5ACE5CDE5CDE5ADEDCDB7
:10473000B429A42CFEF3F671F671F671F671EE70E1
:10474000FEB09368B409DD4CDD8EE5EFE610EE3186
:10475000EE30EE0F9368CDB1FF37F6F6F6F6F6F6CB
:10476000F7177B69312418A308A308A310A310C36B
:1047700020E320E318C318C318C318C318C318A331
:1047800010A318A320C428E42904310439243924AF
:10479000392439243924392439244125414549868D
:1047A000498649454124412449444125412430C496
:1047B00028C3390451448A86B3696A4810C549E759
:1047C0003103BCAFDD72DD92DD92DD71DD70E5504D
:1047D000E550DD50E54FE52FE50EDD0EDCEDDCCDDF
:1047E000D48CD46BCC4ACC0AC3E9C3E9C3C9BBC9D6
:1047F000BB889AC651226A27EE54F6D7FF19FF19D3
:10480000FEF9FEF9F6D8F6B7EE14BC2CF696F6B71C
:10481000F6B7F6B7F6B6F696F675EE13C40ACCCC34
:10482000F64FE5CDE5ACEDCDEDCDE5ACE5ADEDCDAF
:10483000B409A42CFED2EE71EE50EE50EE50EE2FE5
:10484000F6708B28ABC9DD6DE5AEEE30EE51EE5261
:10485000EE51EE30B44AD5B1FF37F6F6F6F6F6F67D
:10486000F7176AA820E418C310A310C318C310C315
:1048700018C318E310C308A3088310A310A318A338
:1048800018C420C420C320E3290431043124312476
:1048900039243924392439254145496549A651E748
:1048A00051C749A74986496549654945392430E4D6
:1048B00030C430C349448246BBCAB42D18E400005A
:1048C0006A68E5B3D551DD72DD91DD71DD70DD50D3
:1048D000DD50E550E54FE52FDD2EDD0EDCEEDCEDA5
:1048E000D4ADD48CCC6BCC2AC409C3E9C3E9C3C909
:1048F000BBA8AB2771A461C5E614F6D8FEF9FF1971
:10490000FF19FEF9F6D8F6B7F655C48EEE55F6B790
:10491000F6B7F6B7F6B7F696EE75EE13D46BD50D7F
:10492000F64FE5CDE5ADEDCDEDCDEDADE5CDEDED64
:10493000B429AC6CFEB2EE71EE70F670EE50EE5033
:10494000F6908B28ABE9E5AEE5EFEE0FE610EE3022
:10495000EE10EE0F82E7D5B2FF36F6F6F6F6F6F673
:10496000F6F65A6720E418C310C318C320C318C34F
:1049700010A318C318C310A310A310A310A310836F
:1049800018A320C328E43104310431043924392424
:10499000392441444144414541454966498649C716
:1049A00049A649864986496549654965412430E4F7
:1049B00030C438C441045964A329DD0FB48F4124A5
:1049C0008B2ADD92D551DD51DD71DD50DD2FDD2FDC
:1049D000DD2FDD2FDD2FDD2EDD2EDD2EDD0EDCEEDD
:1049E000DCCDD48CCC4BCC0AC3E9C3E9C409C3E900
:1049F000BBA9B36882255984DDF3FEF8FEF9FF19DF
:104A0000F719FEF9F6D8F6B7F696CCCFE614F6B756
:104A1000F696F6B6F6B7F696F675EE13D48CD50D77
:104A2000F64FE5CDE5ACEDCDEDCDE5ADEDCDF60E3A
:104A3000BC69B48CFEB2EE70F671EE50EE50EE50E2
:104A4000FE908B28AC09DD6DE58EE5CFE5CFE5CF97
:104A5000E5CFE5CE7AA7D5B1F716F6F6F6F6F6F677
:104A6000F6F6522620E418C418C318C310C310A3C6
:104A700010A308A310A310A310A310A310A318A39E
:104A800020C320C328E329043104312439243924E4
:104A900041444144414441454145498651C751C77C
:104AA00051C749864986496549654965390430E4F5
:104AB00030C430E4410469C5B3A9CC8DDD51D57251
:104AC000BC6ECD10D530D52FD4EFD4CED4CDD4CD2F
:104AD000D4CDDCEEDCEEDD0EDD0EDD2EDD2FDD0EC9
:104AE000D4CDD48CCC4BC3EAC3E9C3E9C3E9C3E951
:104AF000BBC9BBA89AC66184D5B2FEF8FF19FF19DD
:104B0000FF19FF19FEF9F6D8F6B6D530E5D4F6B799
:104B1000F676F6B7F6D7F6B7F675EE34D4CDD52DD2
:104B2000F650EDCDE5ACE5ADEDCDE5ADE5CDEDCDAA
:104B3000B449AC6CFEB1EE30EE50EE30EE50EE30DB
:104B4000FE908307AC0ADD8DDDADEE10EE10E611B0
:104B5000E610EDEF9368CDB1F6F5F6F6F6F6F6F65B
:104B6000F6F65A47290420E310C318C318C308A354
:104B700010A308A308A310A318C418A310A318A374
:104B800020C428E428E430E43104392439243944A9
:104B900041444144414441444145498651C75A2812
:104BA00051E849864945496549654125390430E45C
:104BB00030C430C3410471E5B388B3CABC2CC48E81
:104BC000CCAEC46CC46CC46CC44BC44BC44BC44B9F
:104BD000C44BCC4BCC8CD4EDDD0EDD0EDD0EDCED0C
:104BE000D4ACCC8CCC4BC40AC3E9C3E9C3E9C3E958
:104BF000BBC9BBC9AB4771E5D572FF18FEF9FF19F8
:104C0000FF19FF19FF19F6D8F6D7DD92DDB3FED7ED
:104C1000F696F6B7F6D7F6B7F696F655DCEEDD2D36
:104C2000F650EDCDEDCDEDEDEDCDEDCDEDCDEDEDE8
:104C3000BC69AC6CFED2EE50EE50EE50F650EE5029
:104C4000FE908328AC0ADD6DE5CEE610EE51EE5203
:104C5000EE31F6519389CD91FF36F6F6F6F6F6F67B
:104C6000F6F662673124290418C420E318C310A3A0
:104C700010A318A310A310A318A318A320C420C422
:104C800018C320C328E328E331043104392439242C
:104C90003924414441444144416549A652085A28B7
:104CA00051E84986496649455185494539043904E1
:104CB00030E438E441048246AB68AB68A348A347BC
:104CC000A348AB68B3A9B3E9BC0ABC0ABC0ABBE9F8
:104CD000B3C9B388B388BBEACC8CD4CDD4EDD4CDE2
:104CE000D4ACCC6CC42BC42AC40AC3C9C3E9C3E97D
:104CF000C3E9BBC9B3888245D572FEF8FF19FF1915
:104D0000FF1AFF1AFF19F6F9F6B8E5F3DD51FED7E1
:104D1000F696F6B7F6B7F6B7F696F675DD2FDD4DD3
:104D2000F630E5ADE5CDEDCDEDCDEDCDEDCDEDED57
:104D3000BC69B48DFED3F671F671EE70EE50EE5094
:104D4000FE918B48AC0ADD8DE5EFEE10EE30EE30D3
:104D5000EE30EE509BAACD92FF37F6F6F6F6F6F659
:104D6000F7167B093944312420E420E320E310A323
:104D700010A310A318C318A318C318C418C320E4A1
:104D800029042904290428E42904290431043104CC
:104D900039244124414441444145498659E75A490F
:104DA00051E849A64965496549654145390430E4FA
:104DB00030E430E441048246B3A9AB89A3289AE7E2
:104DC0009AE7A327AB88B3C9BBEABBEABBC9B3A9BF
:104DD000B368B368AB289AC7AB28CC2BD4ADD4CD7D
:104DE000CC8CCC6BC44BC42ABBC9C3EBC3EAC3E9AC
:104DF000C3E9BBE9BBC992A6D572FEF8F719FF1942
:104E0000FF19FF1AFF19FEF9F6D8F655D510F6B6B8
:104E1000F696F696F6B6F6B7F695F674DD0EDD2D37
:104E2000EE50EDEEE5CDEDCDEDEDEDCDEDCDF5EDCD
:104E3000C48ABCCDFED2EE71EE50EE50EE0FEE30D5
:104E4000F6709368B409DD6DE5CFEE10EE51EE51CA
:104E5000EE30F6509BAACD92F716F6F6F6F6F6F679
:104E6000F6F68B8A59C63924290320E328E318C3B0
:104E700018C318A318C320C320C320C320E320E312
:104E800020C328E431043124312431243124312455
:104E900039243924392441244145498551C751E7F2
:104EA00051E851A7498649864965414430E428C400
:104EB00028A4288341048246C44CC44CB3A9AB48FF
:104EC000AB47AB88B3C9B3EABBEABBE9BBE9B3C93B
:104ED000B3A9BBEAC40AC40AA308B389CC6CCC6CDE
:104EE000CC6CCC4BC44BC3EAB3489AA7BB89C3C9AB
:104EF000C3E9C3E9C3E99AE7D551FEF8F6F9FF190A
:104F0000FF19FF19FF19FEF9F6D8F696DD30F656AF
:104F1000F6D7F696F696F6B6F675F633C3EACCED06
:104F2000F650E5CDE5ADEDCDE5CDE5ADE5ACEDED8E
:104F3000BC69B48DFED3EE51EE30EE50EE2FEE5044
:104F4000F6909348B44ADDAEE5CFEE10EE31EE3187
:104F5000E5EFEE0F9B89CD91FF36F6F6F6D5F6F626
:104F6000F6F79BEB6A474964392428E4290320C3F8
:104F700018C320C320C320C328E328E328E328E381
:104F8000290428E428E331043924394439243944F4
:104F9000414441444144414541654986498649C7A8
:104FA00051C7498649454966518651854945390465
:104FB00038E441248267BBEBE5B2E5D3DD2FCCAC0E
:104FC000BC0ABBC9BBEABC0ABC0ABC0AC42AC42AC4
:104FD000C42BC40AC40ACC6BB389A307C40BCC4B43
:104FE000CC4BC42BC3EAC3CAAAE88165AB08C3A9EA
:104FF000C3EAC42BC40AA328D551F6D7F6F8F6F8AD
:10500000FEF9FEF9FEF9FEF9FED8F6B7E592EE14C8
:10501000F6D7F696F696F696F675F653B3A9C4ED5E
:10502000F650EDCDE5ACEDCDEDCDEDCDEDCDF5ED25
:10503000BC49B48DFED3EE51EE50EE30EE30EE7042
:10504000F6B19388BCACE60FE5F0E610EE30EE5119
:10505000EE72EE51A3CACD91FF16F6F6F6D5F6F62E
:10506000F7179C4B7AE859C549643124310431045F
:1050700020C320C328E328E328E328E328E328E328
:10508000310428E428E429043124392441444145E9
:1050900049654145414449A651A651C751E85A299D
:1050A00051E851A7496651A651A6494541243924E2
:1050B0004124412469C5C4AEF6B7F6D8F6B7F675F3
:1050C000EDF3E5B2DD2FCCADCCADCC8CCC8CCCAC43
:1050D000D4CDCC6BBBEA79E58A25A2E7C40ACC2BF8
:1050E000C42BC3EAC389CBEBB287A246AAE8BBA90B
:1050F000C40ACC6CCC4CAB69DD72F6B7F6B7F6D807
:10510000F6D8F6F8F6F8F6D8F6D8F697E5B3E5D37C
:10511000FED7F696F696F696F675F653BBEACD0DE3
:10512000F64FEDEEE5ADEDCDE5ADEDCDEDCDEDED33
:10513000C4AABCCDF6B1EE10EE30EE2FEE30EE503C
:10514000F6909368B44AE5AEE5EFE610E5F0EE318F
:10515000EE31F671A3EACD91FF36F6F6F6F6F6F6E5
:10516000F71793EA83296A46518449643924312424
:10517000290320C328E328E3310328E33104310362
:1051800029043104290429043104312439244965CE
:1051900051855185518551A659E75A0862286A8A76
:1051A000624959E751A651A64985518541243904E0
:1051B000494461A58AC7E5D3FED8F6F9F6F8FED8CA
:1051C000F6D8FED8FED7F675EE13E5D2E591E59157
:1051D000E5B1DD0EC42B8A46AB28C44BCC8CCC4B3E
:1051E000CC2BC3AACB8AB309B2A8C308AAC7C3A948
:1051F000CC4CD4ADD4ADB3AADD92F6B6F6B6F6B7C4
:10520000F6B7F6B7F6D8F6D8F6B7F697EDF4DD3080
:10521000F6B6F696F695F695F674F653BBEACCED2F
:10522000F650EDCEE5ADEDCDE5ACEDCCEDEDEDED33
:10523000CCAABCACF691F651EE50EE50EE50EE71A9
:10524000FEB19369AC09DD8DE5CFEE31EE30EE5164
:10525000EE51F6518B48CD71FF16F6D6F6F6F6F6FE
:10526000F716838983497AC86A06518441444144C8
:10527000392428E328E328E33103310428E33124E7
:10528000310431043124392439243924392439248E
:10529000416451A56A066A2772686A4872896A6918
:1052A0006A286A076A076A2761E75986516561C5F6
:1052B0008AA8AB8ADD71F696F6B7F6D8F6D8F6F876
:1052C000FEF9FF19FF19FF19FEF8FEB7F696F675FD
:1052D000F655EE13DD2FCC2ADD0FF676EE14E591B0
:1052E000D44CC349C3498A06CB2AD38ABAC7C3CA96
:1052F000D4AEDD0FD4EEBBEBDD91F675F676F69607
:10530000F696F676F696F676F676F676EDF3C44CE5
:10531000EE34F696F675F675F654F633BBEACCED38
:10532000F650EDEEEDADE58CE5ADE5ACEDCDF60D71
:10533000C48ABCADF691EE50EE50EE50EE50EE50F9
:10534000FED18B49A3E9E5CEE5F0E610EE51EE3152
:10535000EE10F6508B08CD71FF37F6F6F6F6F7161D
:10536000F7177B497B4983297A8759C5518449645A
:1053700049643924310331033103310331243104C9
:10538000312439243924394441444144494449446D
:105390004965416551A57248932A9B8CA3AD934CF6
:1053A00082EA82A982A9826869E659A57A479B08A0
:1053B000B3CACC6DD50FDD51E5D3EE77F6D8F6F84C
:1053C000FF19FF19FF19FF19FF19FF19FEF9FED880
:1053D000F6B7F696EE14E591DD0FE592EE14EDF3D7
:1053E000DC6DCB8AAAE8A2A9E46EE44ECB6ACC2B92
:1053F000DD30DD50DD30C42CDDB2F654EE75F675CF
:10540000F675F655EE55F655F655F655E571AB4978
:10541000E5F3F695F675F695F674F653C44BD52D6F
:10542000F62FEDEEEDCDEDCDEDEDE5ADEDCDF62EBE
:10543000C48ABCADFEB2F671F671F671EE71F6710A
:10544000FED18B48A3E9E5CFE5F0E610EE51EE5230
:10545000EE51F6719369CD71FF37F6F6F6F6F71750
:10546000F7177B287B28832982E86A0559A4518491
:1054700059A4518439233924392431243924394415
:10548000312431244144414441444144414449642C
:10549000516559A559C6620772687AA982C99B2BC2
:1054A0009B2A9B6B9B6B9B2A7A6792E8C44CCC8DA2
:1054B000CC8DCCAED4EFD4EEDD51E5B3EE55F6D8BD
:1054C000FEF9FF19FF19FF19FF19FF19FF19FF193D
:1054D000FF19FED8F697EE75E5B2DD0FDCEEEDB202
:1054E000E552E4CFB309AACAF532ECF1D40CCC6D85
:1054F000E572E571E571CCEEE5F2EE54F675EE7508
:10550000EE75EE54EE13E5B2E571DD2FC3EB826765
:10551000E5F3F675F675F675F654F633C42BD52D0E
:10552000F650EDCEEDEDEDEDEDEEEDCDEDCDF60E73
:10553000CCCAC4EDF691EE50EE50EE50EE50EE5067
:10554000FEB18B689BA9E5AEE5F0E630EE30EE30BB
:10555000EE31F651A3CACD91FF37F716F6F6F6F6FF
:10556000F7177B497B28834883287AA76A0559A4C3
:1055700059C461C4518441444144392439243924F3
:1055800049644144392441444144414441244164F3
:1055900049655185620772687AAA8B2B932B930A0F
:1055A000A36BB3EDC46EA36B8267B3ECD50FCCAE27
:1055B000C48DC44CCC4CD50FD4EFDD92E5D3F67638
:1055C000FEF9FF19FF1AFF1AFF19FF19FEF9FF1A5A
:1055D000FF3AEE56E592F6B8F6D8F697EE14F636A0
:1055E000F616F5D4AAA8D3ACF532E48FD40CD4CFF8
:1055F000E5F4E5F4E5B2DD51EE13F654F674EE543D
:10560000EE54EE34EE13E591DCCECC0A9A45598582
:10561000E5F3F675F654F654F654F632BBC9CCED04
:10562000F650EDEEEDCDEDEDEDEDEDCDEDCDF60E73
:10563000C4AAC4CDFEB1EE71F671F671F671F671C1
:10564000FED18B899B88DD8DDDCFE610EE51EE30EB
:10565000EE30F650A3EACD91FF36F716F6F6F6F6E1
:10566000F6F68BAA836983698B6983287AA769E533
:1056700059C561C561C551844164414441444144B7
:105680004144496549654144414441444965414477
:1056900041444145496559E76A6982CA8B0A9B4B77
:1056A000ABABC46EBC2D82878267ABCBC44DC46DDF
:1056B000CCCEBC0C8A87C48FC46ED510EE15EE76A6
:1056C000F6B8FEF9FF1AFF1AFF19FF19FEF9FF19C4
:1056D000FF19EE14DD71F697F6D8F6D8F6D8F677FE
:1056E000EDD4DCB0A268F573F552E46FCC0CDD317B
:1056F000EE35EE55E5F4E5B2F634F654F654EE34F4
:10570000EE34EE13EDD2E590DCEDC40A9266496505
:10571000DDB2F675EE34F634F654F653C42BD50DDF
:10572000F650EDEDE5ADE5ADEDCDEDCDE5ACEDCC77
:10573000C489BCCDFEB2F671F691F671EE71F671C8
:10574000FED28B699BC9E5CEE5EFE610EE31EE5156
:10575000EE30F6719389CD71FF57F716F716F716ED
:10576000F71693EB8BAA8B8983698B6983297A67F8
:1057700061C561C561E569E551854984498449642C
:105780004964412449645185494441454965496515
:10579000494549654965498659C762287A898AC950
:1057A0009B2AB3EC9B6A7A479329D4EFDD50D50F3F
:1057B000C44C6A068BADCD53BC0DDD72E5F4EE76BC
:1057C000F6B7FED9FF19FF19FF19FF19FEF8FEF908
:1057D000FEF9FEF8FED8F6B8F6D8FED8F6D8F69858
:1057E000EDB4DC4ED3CDFE16F594ECD0D46DE5B31C
:1057F000F697F697EE35EDF3F634F654F634EE33CD
:10580000EE13EDD2E5B1DD4FDCEDCC2A928630C34C
:10581000CD30F675EE34F654F654F653D48CD52DBF
:10582000F62FEDEDEDCDEDCDEDCDEDCDEDCDEDCC1E
:10583000C48AC4EDFEB2F671F691F671EE51F671BE
:10584000FEF293899B88DDAEDDAFE610EE31EE30DF
:10585000EE10F6509BCACD71FF57F717F716F6F604
:10586000F717942B8BCA8BA98B898B69832882E8C5
:105870007A6661C561E56A0569E559A551A5518456
:10588000518551854965494449644965496549657A
:105890004965496551A65A08624962496228726899
:1058A0008B0A930A722761C69329DD2FDD30DD5004
:1058B000932A730CDE78D5F6CCCFDD93EE15EE7718
:1058C000F6B7FED8FEF9FF19FF19FEF9FED8FED88B
:1058D000FED8F6D8FED8FED8FED8FED8F6D8FED828
:1058E000EE15DC4EE4D1FE16F5B4E552DD30EE15D2
:1058F000F6B8F6D8EE55EE54F654F654EE33EE12F2
:10590000EDF2E5B1E56FDD0ED4ACCC2AA2C730C311
:10591000AC0CFE54F634F654F654F653D4ADDD2CEC
:10592000F62FEDCDE5ADEDCDEDEDEDCDEDADEDCD64
:10593000CCEBCD0DFEB1F671EE71EE50EE30F6719E
:10594000FE918B689BCAE5EFDDAEEE31EE52EE5173
:10595000EE30F6719B89CD71FF57F6F6F6F6F6F646
:10596000F7179C2B93EA8B8983698B6983287AE8E4
:1059700082C8724669E561E672266A0561C559A565
:10598000518551A5498549644944496551854985F1
:10599000498551C762496249624972CB6A8A620885
:1059A0007248724861C661C59329D4EEDD71D4F0A6
:1059B00062088C51E6FAEEFAD531E5F4EE56F69728
:1059C000F6B8F6D8FEF9FF19FF1AFF19FEF8FED84F
:1059D000FED8FED8FED8FED8FEF9FEF9F6D8F6D8E5
:1059E000F697D44DDC6FF616F5F5E5B3E5B2EE5655
:1059F000F6D8F6D8F696F675F675F654EE33EDF25F
:105A0000EDD2E590E54EDD0DD48CCC2AAAE730A38B
:105A10006206EDB1F633F634F654F653D4ADDD0D2F
:105A2000F62FEDCDEDCDEDCDEDEDEDCDEDCDEDCD1B
:105A3000C4AAC4CDFEB1F671EE71EE50EE30F6712F
:105A4000FEB193899BA9DDCFD56EE5EFEE30EE1068
:105A5000E5EFF6509389C550FF37F6F6F6D5F6F622
:105A6000F7179C4B8BEA8BA98B898B6983287AE784
:105A70007AE882C872466A066A0672066A0661E5B4
:105A800051A55185518551A54965496549455185BE
:105A900059C66248628A6ACB6A8A62296229624868
:105AA0006A2859E6518651858AA7C44CDD30A3EE99
:105AB000310431026247ACB0DD93EE56F697F6B88A
:105AC000F6D8FED8FEF9FF19FF1AFF1AFF19FEF9E2
:105AD000FEF8FED8FED8FEF9FEF9FEF9F6D8F6D8A3
